:020000040800F2
:1000000088630020B10200084596000819780008AE
:10001000B1840008A921000829C0000800000000E0
:1000200000000000000000000000000091B1000886
:10003000A12500080000000001990008B5B10008E2
:10004000CB020008CB020008CB020008CB0200085C
:10005000CB020008CB020008CB020008CB0200084C
:10006000CB020008CB020008CB020008D122000816
:10007000E1220008F12200080123000811230008F2
:100080002123000831230008CB020008BD2100080D
:10009000AD210008CB020008CB020008CB0200080B
:1000A000CB020008CB020008CB020008CB020008FC
:1000B000C5B20008CB020008CB020008CB02000842
:1000C000CB020008CB020008CB020008CB020008DC
:1000D000CB020008E9BF0008F9BF000809C000080A
:1000E000CB020008CB020008CB020008CB020008BC
:1000F000CB020008CB020008CB0200084123000815
:10010000CB020008CB020008CB020008CB0200089B
:1001100035B8000845B80008CB020008CB0200083B
:10012000CB0200085123000861230008CB0200081D
:10013000CB020008CB020008CB020008DD2100083A
:10014000CB020008CD210008CB020008CB0200083A
:10015000CB020008CB020008CB02000819C000083F
:10016000CB020008CB020008CB020008CB0200083B
:10017000CB020008CB020008CB0200080000000000
:10018000CB020008CB02000800F002F800F080F873
:1001900014A696E8000CB244B344DA4501D100F04D
:1001A00077F8BAE80F000FA696E83000A5EB040533
:1001B00004EB0607AAEB0704A7F101074FEA1515A0
:1001C0004FEA3414A4F10104AC4201D300F060F80A
:1001D00013F0010F18BFFB1A43F0010300F001F800
:1001E000DBE71847281D0100481D01000A444FF0B5
:1001F000000C10F8013B13F0070408BF10F8014B86
:100200001D1108BF10F8015B641E05D010F8016BCA
:10021000641E01F8016BF9D113F0080F1EBF10F82E
:10022000014BAD1C0C1B09D16D1E58BF01F801CB51
:10023000FAD505E014F8016B01F8016B6D1EF9D5D4
:100240009142D6D37047000070470000002300247D
:1002500000250026103A28BF78C1FBD8520728BFD6
:1002600030C148BF0B6070471FB511F0C2F801F0F4
:10027000BFF904000020002110F01EFA401C60604D
:100280000020002110F002FAE0601FBD10B510BD83
:1002900001F080F91146FFF7E7FF0CF0C9FA01F011
:1002A00031FA03B4FFF7F2FF03BC01F035FA0000A6
:1002B0000948804709480047FEE7FEE7FEE7FEE7FA
:1002C000FEE7FEE7FEE7FEE7FEE7FEE70448054936
:1002D000054A064B70470000B1B2000889010008CA
:1002E0008853002088630020885F0020885F0020FA
:1002F00053EA020C00F069802DE9F04B4FF0000644
:10030000002B1FBFB3FA83F503FA05F424FA05F6B0
:100310005E4012BF1643B2FA82F502FA05F4C5F147
:1003200020051EBF22FA05FC44EA0C04203556EADB
:10033000044C4FEA144418BF641C4FF000084FF0FF
:100340000009904271EB030C39D3002919BFB1FAAF
:1003500081F701FA07F6B0FA80F700FA07F6C7F15D
:1003600020071EBF20FA07FC46EA0C062037B6FB22
:10037000F4FCA7EB0507103F07F01F0BCBF120069D
:100380002CFA06F60CFA0BFB44BFB3460026202FCE
:10039000A4BF5E464FF0000B5BEA060C08BF4FF0AF
:1003A000010B19EB0B0948EB0608ABFB027C06FBC3
:1003B00002CC0BFB03CCC01B71EB0C01C1E70B465D
:1003C000024641464846BDE8F08B13B5084318BFC6
:1003D0004FF0FF300146AFF30080BDE81C4070478E
:1003E0000FB400B58DB010A9099000910B904FF09B
:1003F000FF300A9000200C9006487844069006488A
:1004000078446A4607900F9909A800F051FA0DB098
:100410005DF814FBD3040000EB040000032A40F253
:10042000308010F0030C00F0158011F8013BBCF196
:10043000020F624498BF11F801CB00F8013B38BFAE
:1004400011F8013BA2F1040298BF00F801CB38BFBC
:1004500000F8013B11F0030300F0C083083AC0F03C
:10046000088051F8043B083A51F804CBA0E8081082
:10047000F5E7121D5CBF51F8043B40F8043BAFF3B5
:100480000080D20724BF11F8013B11F801CB48BF0F
:1004900011F8012B24BF00F8013B00F801CB48BF45
:1004A00000F8012B704702F0FF0343EA032242EAFF
:1004B000024200F002B84FF0000200B51346944625
:1004C0009646203922BFA0E80C50A0E80C50B1F1AC
:1004D0002001BFF4F7AF090728BFA0E80C5048BFC0
:1004E0000CC05DF804EB890028BF40F8042B08BF5E
:1004F000704748BF20F8022B11F0804F18BF00F85A
:10050000012B704770477047704710B500F09CFB97
:10051000006810BD10B5044600F096FB046010BDE5
:100520002DE9FF4F1C4691464FF0FF3581B0002169
:100530008A468846D4E90167A16902986D1C8847FC
:10054000216A834688470028F6D1BBF1FF3F0CD0D3
:10055000002F26F4C0661ADD700615D5BBF12B0FEF
:100560000AD0BBF12D0F0FD104E04FF0FF3005B0E2
:10057000BDE8F08F46F48066A16902986D1C88473B
:100580007F1E8346002F02DDBBF1300F03D0B9F18F
:10059000000F2AD025E0A1696D1C02987F1E46F449
:1005A00000768847002F834605DDBBF1780F06D023
:1005B000BBF1580F03D0B9F1000F10D011E0B9F121
:1005C000000F02D0B9F1100F0BD1A1696D1C029878
:1005D0007F1E26F4007688478346102000E008201E
:1005E00081464FEAE970009017E00A20F8E7434699
:1005F000AAFB0928DDF800C07F1E03FB098046F432
:10060000007605F101050AFB0C0112EB0B0A0298BA
:1006100041EBEB78A16988478346002F06DD494608
:10062000584600F01EFB5FEA000BE0D5E169029836
:100630008847B00502D46FF0010098E7F00718D1A1
:10064000700610D55146700505D50023D1EB030186
:1006500063EB080200E042462068031D2360006847
:10066000C0E9001205E02068011D21600068C0E9B2
:1006700000A828467BE72DE9FF5F1D464FF0FF3BB2
:1006800091464FF000085F46D5E90146A9690198F7
:100690007F1C8847296A824688470028F6D1BAF12C
:1006A000FF3F0CD0002E24F4C06419DD600614D581
:1006B000BAF12B0F09D0BAF12D0F0ED103E0584635
:1006C00004B0BDE8F09F44F48064A96901987F1CE0
:1006D0008847761E8246002E02DDBAF1300F03D025
:1006E000B9F1000F26D032E0A969761E01987F1C6F
:1006F00044F400748847002E824605DDBAF1780F75
:1007000006D0BAF1580F03D0B9F1000F10D01EE097
:10071000B9F1000F02D0B9F1100F18D1A969761EF6
:1007200001987F1C24F4007488478246102002E060
:10073000082000E00A20814609E0A96908FB0908B1
:10074000761E01987F1C44F4007488478246002E70
:1007500005DD4946504600F084FA0028EDDAE969E3
:1007600001988847A00502D46FF00100A8E7E007D0
:1007700025D1600613D5600502D5C8F1000000E060
:10078000404629680A1D2A600968220501D50870BB
:1007900015E0220701D5088011E008600FE0286805
:1007A000011D29600068210502D580F8008006E05F
:1007B000210702D5A0F8008001E0C0F8008038468B
:1007C0007EE72DE9FF5F4FF0000899461446464644
:1007D0009169D2E901A7DDF838B00198884705464C
:1007E00059EA0B0005D009E0A1690198761C8847F9
:1007F0000546216A284688470028F5D1681C03D0A1
:100800005FEACA7005D015E04FF0FF3004B0BDE8D4
:10081000F09F2068011D2160D0F800800AE05FEAA7
:10082000CA7001D108F8015BA169761C01987F1E8E
:1008300088470546002F1ADD681C18D0B9F1000F53
:100840000DD0E81705EBD060421120F01F0059F8D9
:1008500022102A1A012090400142E0D107E0BBF1AA
:10086000000FDCD12846216A88470028D7D0E169EB
:1008700001988847BBF1000F07D1002E05DD5FEA24
:10088000CA7002D1002188F80010A068B84203DDC8
:10089000BBF1000F03D017B16FF00100B6E730468F
:1008A000B4E70000026811441378016018467047ED
:1008B000D1600549794451610449794411620021AC
:1008C0001161114600F0DCB9EDFFFFFF930300005A
:1008D000426842B1016811F8013B23B1521EC0E9E0
:1008E0000012184670470121C160881E7047426897
:1008F0005AB1C368016843B983688B4205D0491E69
:10090000521CC0E90012002070474FF0FF307047C2
:100910002DE9FF4F4FF000089A461446C14646465F
:1009200083B0D2E901B7CDF80080CDF80480916999
:1009300004988847109905465AEA010005D009E055
:10094000A1690498761C88470546216A284688478D
:100950000028F5D1681C03D05FEACB7005D02AE0EF
:100960004FF0FF3007B0BDE8F08F2068011D216017
:10097000D0F800801FE002A86A46E9B200F0C5FD89
:10098000411C07D0801C09D04FF000095FEACB70F2
:1009900007D00AE0E169049888473EE04FF001097A
:1009A00004E0BDF8081028F8021B7F1EA169049816
:1009B000761C88470546002F1ADD681C18D0BAF14E
:1009C000000F0DD0E81705EBD060421120F01F009A
:1009D0005AF822102A1A012090400142CBD107E098
:1009E00010980028C7D12846216A88470028C2D01D
:1009F000E16904988847B9F1000F0ED1109830B919
:100A0000002E04DD5FEACB7001D1A8F80000A068D9
:100A1000B84202DD109818B117B16FF00100A1E7DC
:100A200030469FE72DE9FF4F4FF000089B461446E4
:100A3000454683B0D2E90196CDF80080CDF8048018
:100A40009169DDF848A00498884707465BEA0A00E8
:100A500005D009E0A16904986D1C88470746216A02
:100A6000384688470028F5D1781C03D05FEAC97062
:100A700005D01BE04FF0FF3007B0BDE8F08F2068D5
:100A8000011D2160D0F8008010E05FEAC97007D135
:100A90006A464046B9B200F058FD411C31D080444E
:100AA000A1696D1C0498761E88470746002E14DD48
:100AB000781C12D0BBF1000007D03B46DDE91012D4
:100AC00000F014FD0028E0D107E0BAF1000FDCD1FE
:100AD0003846216A88470028D7D0E16904988847BA
:100AE000BAF1000F06D1002D04DD5FEAC97001D113
:100AF00088F80000A068B04203DDBAF1000F03D00F
:100B000016B16FF00100B7E72846B5E72DE9FF5FA2
:100B10009B46144600273D469169D2E90196DDF8CF
:100B200040A00198884780465BEA0A0005D009E0AA
:100B3000A16901986D1C88478046216A4046884714
:100B40000028F5D1B8F1FF3F03D05FEAC97005D0A6
:100B500014E04FF0FF3004B0BDE8F09F2068011DA5
:100B6000216007680AE05FEAC97001D127F8028BAB
:100B7000A1696D1C0198761E88478046002E15DD00
:100B8000B8F1FF3F12D0BBF1000007D04346DDE9CA
:100B90000E1200F0ABFC0028E5D107E0BAF1000F1F
:100BA000E1D14046216A88470028DCD0E1690198FC
:100BB0008847BAF1000F05D1002D03DD5FEAC97047
:100BC00000D13880A068B04203DDBAF1000F03D035
:100BD00016B16FF00100BEE72846BCE710B5203A19
:100BE000C0F00B80B1E81850A0E81850B1E81850D8
:100BF000A0E81850203ABFF4F5AF5FEA027C24BFAA
:100C0000B1E81850A0E8185044BF18C918C0BDE892
:100C100010405FEA827C24BF51F8043B40F8043B5B
:100C200008BF7047D20728BF31F8023B48BF11F810
:100C3000012B28BF20F8023B48BF00F8012B70476A
:100C400000487047E004002000487047E00400209E
:100C500010B5044600F0C4FC0068005D00F001001F
:100C600010BD3A2800D2303820F02002412A01D3AA
:100C7000A2F13700884201D34FF0FF3070470000E7
:100C80002DE9F34F4FF0000A0C4656468DB0012077
:100C90000C9001F10C000B9062690B9801219047B8
:100CA000051E2DD0252D2CD0216A8847C0B1626940
:100CB0000B9801219047216A88470028F7D1626983
:100CC000411E0B98904700E0761CA1690D9888475B
:100CD000216A88470028F7D1E1690D988847DBE74A
:100CE000A1690D988847A842074601D1761CD3E731
:100CF000E1690D9888477F1C02D1BAF1000F6FD0CF
:100D00006BE162690B9800273D46394690472A28D7
:100D100004D162690B98012190470125DFF8D08248
:100D200062690B9801219047A0F130010A290AD28B
:100D30004745E5DC07EB870100EB4107303FDFD497
:100D400045F01005ECE7E90601D46FF000476C2888
:100D50000AD04C2814D0682815D06A280DD07428E1
:100D60001CD07A281AD01DE062690B9801219047A7
:100D70006C2802D045F0040514E045F002050DE0B2
:100D800045F020050AE062690B9801219047682828
:100D900002D045F0080505E045F4006562690B984E
:100DA00001219047C4E9015765283DD019DC582836
:100DB0007AD00CDC452837D004DC252826D0412801
:100DC0009ED131E046282FD0472899D12CE05B28CE
:100DD00077D0612828D063287CD0642823D15AE0BA
:100DE000F6E06F2848D008DC66281DD067281BD0A5
:100DF000692821D06E2816D127E0702845D07328A5
:100E000068D0752847D078280DD14DE0A1690D989C
:100E10008847252805463FF469AFE1690D98884762
:100E20006D1C3FF46AAFD8E00D9923466A466FF017
:100E3000010010F053FBC5E045F0400023464FF0A1
:100E400000026060A80736D43EE0E8077FF447AFB1
:100E50002068011D21600068290501D506701BE787
:100E6000290701D5068017E7A90703D5F117C0E9BF
:100E7000006111E706600FE745F0400023464FF0A0
:100E800008026060A80716D41EE040F60E0125EAAD
:100E90000100606016E045F0400023464FF00A0272
:100EA0006060A80707D40FE045F040006060A80725
:100EB00008D5234610220D996FF00100FFF730FB93
:100EC00080E007E0102223460D996FF00100FFF744
:100ED000D2FB77E04FF0000963284F46C8464B46E7
:100EE000CB4602D05B2806D038E0E80601D40120CA
:100EF000A060012732E06269D4F80CB00B980121A0
:100F000090475E2807D14FF0010949466269D4F83D
:100F10000CB00B989047216939B900210A4603AB00
:100F200043F82120491C0829FADBD8B3216949B3C9
:100F300008F1010862690B98012190475D28F4D1FE
:100F4000B9F1000F09D0002003A951F82020D243A5
:100F500041F82020401C0828F7DB03AB206900285B
:100F600020794FEA40701ED05B462246CDF80080C3
:100F7000CDE901970D9900286FF0010020DAFFF705
:100F8000C5FD1FE0C11703AA00EBD1614B1121F091
:100F90001F0102EB8302411A1368012088400343BA
:100FA0001360C7E719E00D99224600286FF0010091
:100FB000009702DAFFF7ACFC04E0FFF702FC01E067
:100FC000FFF730FD00280ADA401C06D10C9820B14A
:100FD0004FF0FF300FB0BDE8F08F5046FAE7E90759
:100FE00001D10AF1010A064400200C9054E60000E9
:100FF000CCCCCC0C2DE9FF4F06468BB00878FF28EF
:1010000006D0491C2D2805D000244FF0000908E027
:1010100000200CE00124F8E709EB8903491C00EBF0
:1010200043090878FF28F7D114B1C9F100008146BF
:10103000107800252C46AA4629462D2801D02B28B9
:1010400004D1521C2D2813D0002082468B461078E4
:10105000FF280FD04FF0000C0A21521CA5FB01788D
:1010600004FB018105FB0C11C5194BEB0104EEE7F4
:101070000120EAE7002108464FF00000BAF1000F16
:1010800002D000EB80004008C0F38157012F01DD42
:101090004FF0FF370E9955EA040009EB01080BD019
:1010A0004FF0020918F5FA7F16DA4FEACA70002FDE
:1010B000706008DD012007E04FEACA70C6E900B0A1
:1010C0000FB0BDE8F08F00203060FFF7BDFDC0F825
:1010D00000901821084616E0B8F5FA7F18DD002FB9
:1010E00002DAF748784401E0F6487844D0E9001085
:1010F000C6E9001040EACA707060FFF7A5FDC0F8AD
:101100000090142108460FB0BDE8F04F10F083B9ED
:10111000002108464FF00000B8F10001099002DA02
:10112000C7F1000200E03A4601DAC8F1000106A862
:1011300000F076FA06AB93E8070003AB83E80700FC
:1011400044F23E005BEA04010090584604D144F2A8
:101150001E012C465D460091210C0904014306D175
:101160000099240444EA15442D041039009104F038
:101170007F41014306D10099240244EA15642D02FF
:101180000839009104F07041014306D1009924010F
:1011900044EA15742D01091F009104F040410143F8
:1011A00006D10099A40044EA9574AD00891E00910F
:1011B00004F00041084304D100986D196441401EB9
:1011C00000904FF001033A466846B8F1000FCDE9B0
:1011D000014503A902DD0EF08EFA01E00EF061FA7E
:1011E000BAF1000F04460D4601D084F000440021FE
:1011F00008464FF00000099940F2FF77484010F090
:101200000C0F07D124F00040284303D0C4F30A5048
:10121000B84212D1FFF718FDC0F80090C4F30A508D
:10122000B8420AD1A8487844D0E90010C6E90010B5
:1012300004F000410843706042E7C6E900543FE70C
:101240002DE9FF4F1F464FF0000A4FF0FF3845468B
:1012500091B0D7E90146CDF83CA000F0C9F9C068CB
:101260000168405C1090B96912986D1C8847396A12
:10127000814688470028F6D1B9F1FF3F0AD0002EF9
:1012800024F4D06411DDB9F12B0F08D0B9F12D0F82
:101290000BD102E0404615B013E744F48064B9690D
:1012A00012986D1C8847761E8146600504A901D5F9
:1012B0002D2000E02B20002E01F1010B0DF1300854
:1012C0008DF810003FDDB9F1690F08D0B9F1490F71
:1012D00005D0B9F16E0F02D0B9F14E0F1CD13B46CB
:1012E00001A8009580E85002DDE912126FF00200BB
:1012F00010F0F8F8C11CCED10EE0B96912986D1C3F
:10130000884781461398761E44F4007405600F9850
:10131000401C002E0F9016DDB9F1300FEDD0B9F161
:10132000780F02D0B9F1580F0DD10F9801280AD1CA
:101330003B46CDE90054DDE91212001F029610F081
:10134000CFF8C11CA7D1109989453ED144F0800443
:1013500006E01399681CAAF1010A44F400740860BD
:10136000B9696D1C1298761E884730288146F0D0E6
:101370002BE01099894505D1200603D4761E44F050
:10138000800418E048460FF013F908B3761E0DF1FB
:1013900023029345A9F1300044F4007406D20BF8FF
:1013A000010B200607D5AAF1010003E0200602D4B4
:1013B0000AF101008246A00502D51399681C086055
:1013C000B96912986D1C88478146002ED1DC53E024
:1013D000002E51DDB9F1650F02D0B9F1450F4BD1A7
:1013E000A00549D5B9696D1C1298761E24F4407485
:1013F0008847002E81460CDD2B2804D0B9F12D0F33
:1014000007D144F48074B96912986D1C8847761E20
:101410008146E00501D52D2100E02B2108F8011BB4
:10142000CDF8008021E0761E0DF13901884544F4A5
:1014300000740CD2A9F1300010F0FF0088F8000011
:1014400002D10099884509D908F1010806E0E005B4
:1014500001D51E4801E042F20F708246B969129828
:101460006D1C8847814613980560002E04DD4846B0
:101470000FF09EF80028D6D1F96912988847FF200E
:1014800053468BF8000088F8000000200A900B906B
:1014900004AA0CA90AA8FFF7ADFDA00502D46FF0BD
:1014A0000100F8E614F0240F12D0E0071CD13868D0
:1014B000DDE90A12031D3B600068C0E9001213E079
:1014C0004C0E01003E0E0100020D0100F1D8FFFF9D
:1014D0000AA968460EF0AEFFE00705D13868009A09
:1014E000011D3960006802602846D4E610B508E0A6
:1014F00030F8024B9C4204D10AB1002010BD0120FB
:1015000010BD491EF4D2104610BDF8B516460C4663
:10151000054600F065F8036893F80101012804D03E
:10152000185D78B101202C80F8BDD3F80301324654
:10153000214603F20313C71868460023B8470099F1
:101540002980F8BD4FF0FF30F8BD2DE9F041164677
:101550000C46054600F044F8036893F801010128A1
:1015600007D0FF2C12D8185D80B101202C70BDE887
:10157000F081D3F807013246214603F20713C7185A
:101580002846BC46BDE8F041002360474FF0FF30DD
:10159000EDE770477546FFF753FBAE460500694619
:1015A000534620F00700854618B020B5FEF78EFEA2
:1015B000BDE820404FF000064FF000074FF0000854
:1015C0004FF0000BAC46ACE8C009ACE8C009ACE891
:1015D000C009ACE8C00921F007018D467047000042
:1015E00010B500F005F8001D10BD00BFCDF00000E3
:1015F0000048704700050020B2F120030AD5C2F16F
:10160000200301FA02F120FA03F341EA030100FA90
:1016100002F0704700FA03F14FF00000704700003D
:101620002DE9F047814616468AB0354878440DC802
:101630008DE80D0032487844801C03AC0DC884E866
:101640000D0041F69B300844372190FBF1F290FBEE
:10165000F1F5A5F1800501FB12041B3C02D56442A3
:10166000012000E00020DFF898A080460027FA441F
:10167000AAF1BE0A0EE0E0070AD03246684607EB40
:10168000470101230AEB81010EF020F88DE80700E5
:1016900064107F1C002CEED1194F7F44AE3F19E03F
:1016A000E80715D007EB04100DF1180A90E80E00BA
:1016B0008AE80E00C068F04201D1981908903246BD
:1016C000012306A903A80EF001F803AB83E8070085
:1016D0006D10641C002DE3D14FF0010332466946C2
:1016E000B8F1000F03A802D00DF0C6FF01E00DF025
:1016F000EDFFC9E90001C9F808200AB0BDE8F0878C
:101700001400010010B50446AFF300802046BDE888
:101710001040FEF7C6BD000001491820ABBEFEE731
:10172000260002002DE9FF4F1F464FF03C0987B00D
:101730004FF00042DDE9141001F10108DDF858A076
:1017400002EA405003900020059083460546044677
:101750000490B969461E08988847AAF1010A0290C8
:10176000BAF1000F3BDD02982E2815D01021FFF7AB
:1017700078FA00282EDB4FF0010B0599014317D0B2
:10178000B9F1000F0BDB4A46C117FFF735FF0543E0
:101790000C43A9F1040905E0012004900BE008B115
:1017A00045F0010501200590049820B9361D02E09E
:1017B000049800B1361FB969089808F101088847F4
:1017C000BBF1000FAAF1010A0290C9D00999C1F832
:1017D0000080C5E70298702808D0502806D0F96923
:1017E00008988847BBF1000F14D04FE0002002900A
:1017F0000120BBF1000F049009D0B969089808F1E5
:1018000001088847AAF10109B9F1000F07DCF9695D
:10181000089888476FF001000BB0BDE8F08F2B28C7
:1018200004D02D280CD14FF0FF300490B9690898EE
:1018300008F101088847A9F10109B9F1000FE6DDB7
:10184000411CE4D00A21FFF70CFA0028DFDB0299E3
:1018500008F1010801EB810100EB41000290B96938
:10186000089888470A21FFF7FCF9099AA9F10109AC
:10187000B9F1000FC2F8008001DD0028E7DAF9694C
:10188000089888470499029800FB016655EA04000D
:1018900004D004F04041090002D006E0039898E02B
:1018A000A40044EA9574AD00B61E04F0004108009F
:1018B00002D16D196441761E159810F0240F03D0E3
:1018C0004FF00B095C4803E04FF028096FF07D00F2
:1018D0008246564507DAAAEB06018944B9F1410F61
:1018E00001DD4FF0410901200021A9F10102FFF7BC
:1018F00083FE024628400B462140084301D00121C7
:1019000000E00021501E029143F1FF3128402140A8
:10191000084301D0012000E000200299834651EAEB
:101920000B014FD0002108464FF00000039900F44E
:10193000400039B100EB80004FF4400100EBD07063
:1019400001EA60008015012802DD4FF0FF3000E061
:1019500013D0401C36D0029860B3BBF1000F0CD1FD
:101960004A4601200021FFF747FE28402140084356
:1019700001D0012000E00020E0B101204A46002112
:10198000FFF73AFE034640190A4661412D1A8C4181
:1019900011D3B9F1400F09DD159810F0240F02D0D2
:1019A000AAF1340603E0AAF1170600E0761C002530
:1019B0004FF0004406E05B1E42F1FF3220EA0305CF
:1019C00021EA0204CAF10100B04206DA1B49039879
:1019D00008430190002000900EE0039AC4F3D32145
:1019E000E80A0A43164940EA44500A433146CDE921
:1019F000000268460EF0D2FD159810F0240F0BD0AF
:101A00001598C00715D13868DDE90012031D3B6049
:101A10000068C0E900120CE002A869460EF00AFD59
:101A20001598C00705D13868029A011D3960006811
:101A300002604046F0E6000002FCFFFF0000F07F7D
:101A40000000F03F2DE9FF4F92461D4685B04FF054
:101A50000041DDE9124BDDE914727F1E01EA4B50B3
:101A6000414940F0FF4940EA0108002122F02000EE
:101A70004928049102D04E2828D04CE03BA00126F2
:101A800007C88DE80700A9690698641C88477F1E6F
:101A9000014606D41DF8060018B121F0200181424C
:101AA0000BD0E96906988847032E34D0082E32D02F
:101AB0006FF0010009B0BDE8F08F761C032E01D055
:101AC000082EE0D1601CCAF80000DCE7A96906987E
:101AD000641C88477F1E2AD420F02000412826D18C
:101AE000A9690698641C88477F1E20D420F0200036
:101AF0004E281CD1A9690698641C88477F1E48F4AB
:101B0000002849F48009CAF8004001D4282806D0EA
:101B1000E969069888475FEACB7012D022E0A9698C
:101B20000698641C88477F1E01D4002803DAE969FF
:101B300006988847BCE72928F1D1641CCAF8004000
:101B4000E9E71BF0240F07D028680499031D2B60D8
:101B50000068C0E9001805E02868021D2A600068D6
:101B6000C0F800902046A5E70000F07F494E4649A6
:101B70004E4954590000000030B44FF0013C50F879
:101B8000042B51F8043BCCFA52F4D51A20D1FCB9FD
:101B900050F8042B51F8043BCCFA52F4D51A17D163
:101BA000B4B950F8042B51F8043BCCFA52F4D51ACE
:101BB0000ED16CB950F8042B51F8043BCCFA52F416
:101BC000D51A05D1002CDAD030BC4FF00000704798
:101BD00029BAB1FA81F111F01801D1F12000844045
:101BE000F2D1CA40CB4012F0FF0213F0FF0330BC29
:101BF000D01A704780B58AB00990002008900790ED
:101C00000690059004900390FFE7099806A94FF00D
:101C1000FF320CF089FC41F20C40C2F20000006877
:101C2000B0B1FFE7039840B9FFE741F20C40C2F2C0
:101C3000000000680BF040FF09E040F28060C2F253
:101C4000000000684FF0FF310CF05CFDFFE7FFE79C
:101C500040F6BA20C2F200000078E0B1FFE7079832
:101C6000089B41F26431C2F200016A46916040F281
:101C70008461C2F2000151600221116041F6DE610F
:101C8000C0F6010180220CF009FF41F20C41C2F2C2
:101C9000000108601BE00798089B41F2B831C2F2CE
:101CA00000016A46916040F68401C2F20001516071
:101CB0000221116041F6E661C0F6010180220CF0BC
:101CC000EDFE41F20C41C2F200010860FFE740F670
:101CD000BA21C2F200010878B0FA80F04009087019
:101CE00006980799089A0592049103908DE70000E1
:101CF00080B58AB0099040F2F431C2F200010020B0
:101D00000590087041F2CC11C2F20001086041F266
:101D1000C811C2F2000106914CF6CD40C3F64C60EA
:101D2000086040F21441C2F2000142F210700880D3
:101D300040F28021C2F2000104910520C1F8110097
:101D4000C8200BF0F7FD04990420C1F811004FF4EE
:101D500096700BF0EFFD0598069941F22042C2F211
:101D60000002107040F21830C2F200000790406884
:101D7000086019200BF0DEFD0798806841F21841D9
:101D8000C2F200010860FFE740F26040C2F20000CA
:101D900090ED040A40F21830C2F2000090ED031AF0
:101DA0009FEDDF2A21EE021A9FEDDE2A81EE021A54
:101DB000B4EE410AF1EE10FA04DDFFE703200BF068
:101DC000B9FDE1E740F29820C2F20000006840F659
:101DD000BC21C2F20001086041F21841C2F20001C8
:101DE00000200860FFE740F26040C2F2000090ED82
:101DF000040A40F21830C2F2000090ED041A9FED80
:101E0000C82A21EE021A9FEDE52A81EE021A00206F
:101E1000B4EE410AF1EE10FA03900FDDFFE740F255
:101E20006040C2F2000090ED050A0020B5EE400AC5
:101E3000F1EE10FAB8BF01200390FFE70398C00746
:101E400020B1FFE703200BF075FDCCE740F25840CE
:101E5000C2F20000006841F21841C2F200010860BD
:101E600041F2C811C2F200010020086040F2C831FE
:101E7000C2F20001087040F2F431C2F200010870B1
:101E800041F2CC11C2F20001086001208DF823005C
:101E9000FFE740F26040C2F2000090ED050A00202A
:101EA000B5EE400AF1EE10FA029012DAFFE740F2C6
:101EB0005830C2F20000406900EE100A9FEDB81AD7
:101EC0000020B4EE410AF1EE10FAC8BF01200290E2
:101ED000FFE70298C00720B1FFE703200BF02AFDBF
:101EE000D7E740F25830C2F20000406900EE100A15
:101EF0009FEDAB1AB4EE410AF1EE10FA04DCFFE7F5
:101F000000208DF82300FFE741F21841C2F20001E2
:101F10000020086041F22042C2F20002012111704B
:101F200041F21C41C2F2000108609DF82300B0B3E9
:101F3000FFE7FFE740F25830C2F20000406900EED0
:101F4000100A9FED971AB4EE410AF1EE10FA04DD83
:101F5000FFE703200BF0EEFCECE740F2C831C2F2E1
:101F600000010120087041F2C811C2F200014CF6D4
:101F7000CD40C3F64C700860FFE740F25830C2F223
:101F80000000406900EE100AB5EE400AF1EE10FACA
:101F900004DAFFE703200BF0CDFCEEE7FFE741F2A8
:101FA000C811C2F200010020086040F2F431C2F210
:101FB00000010120087040F2C831C2F2000108702F
:101FC00040F28021C2F200010320C1F8110041F269
:101FD0000420C2F2000090ED000A40F24830C2F244
:101FE000000090ED001AB4EE410AF1EE10FA1FDD88
:101FF000FFE741F2CC11C2F200014FF0404008600F
:10200000FFE741F20420C2F2000090ED000A40F226
:102010004830C2F2000090ED001AB4EE410AF1EE31
:1020200010FA04DDFFE703200BF084FCE9E71EE073
:1020300041F2CC11C2F200014FF080400860FFE78E
:1020400041F20420C2F2000090ED000A40F2483054
:10205000C2F2000090ED001AB4EE410AF1EE10FA5F
:1020600004DAFFE703200BF065FCE9E7FFE741F244
:10207000CC11C2F200010020086041F22041C2F2FE
:1020800000010120087041F21C41C2F200014FF032
:102090007C500860FFE740F26040C2F2000090ED23
:1020A000040A40F2CC40C2F2000090ED001AB4EEF7
:1020B000410AF1EE10FA04DAFFE703200BF03AFCD4
:1020C000E9E741F21C41C2F200010020086040F241
:1020D0008021C2F200010120C1F8110041F2CC11AF
:1020E000C2F200014FF040400860FFE741F20420D7
:1020F000C2F2000090ED000A40F20C40C2F2000073
:1021000090ED001A9FED272A31EE021AB4EE410A33
:10211000F1EE10FA08DDFFE703200BF00BFCE5E71A
:10212000DB0F49400000344340F2F431C2F20001B9
:1021300000200190087041F2C811C2F20001009124
:102140004CF6CD40CBF6CC5008604FF47A700BF0D3
:10215000F1FB0098019B036041F2CC10C2F2000039
:10216000036040F6BC20C2F20000036040F214415C
:10217000C2F2000140F6B8300880099901200870C9
:1021800040F28060C2F20000006819461A460CF066
:1021900023F801980BF090FC0AB080BD0000344396
:1021A000CDCCCC3D0AD7233CFFE7FEE780B540F617
:1021B000DC20C2F2000001F0EFFA80BD80B540F6ED
:1021C000DC20C2F2000001F0E7FA80BD80B540F6E5
:1021D0000430C2F2000001F0DFFA80BD80B540F6A5
:1021E0000430C2F2000001F0D7FA80BD80B58AB099
:1021F00008900791002006900590049003900290AB
:10220000019000900898016846F20042C4F2000272
:10221000891A18BF0121079B6A4601F0B3F9029899
:1022200018B9FFE70098099002E001980990FFE7CC
:1022300009980AB080BD000080B58CB00B900A915F
:1022400009920A98039000200490059006900821B6
:1022500007918DF8200002900B98099A03A902AB10
:1022600000F0ECFF8DF807009DF807000CB080BD72
:1022700080B58CB00B90002007900121089101904F
:102280000290039004900E200A900B98006846F28A
:102290000041C4F20001884204D1FFE7002006900B
:1022A0000590FFE70B98006846F60001C4F20001B4
:1022B000884205D1FFE70E20069001200590FFE738
:1022C000012009900B9801A901F064F80CB080BDC1
:1022D00080B540F6EC30C2F2000001F071FF80BD25
:1022E00080B540F6CC50C2F2000001F069FF80BD1D
:1022F00080B540F62C30C2F2000001F061FF80BDD5
:1023000080B540F62C60C2F2000001F059FF80BD9C
:1023100080B540F68C30C2F2000001F051FF80BD64
:1023200080B540F60C50C2F2000001F049FF80BDBC
:1023300080B540F66C50C2F2000001F041FF80BD54
:1023400080B540F64C40C2F2000001F039FF80BD7C
:1023500080B540F68C60C2F2000001F031FF80BD14
:1023600080B540F6AC40C2F2000001F029FF80BD0C
:1023700082B001900198007810384AF6AB21CAF675
:10238000AA21A0FB011000090090009941F2806091
:10239000C0F60100405C0199C8650098042807D385
:1023A000FFE701990868042262F30900886506E0E6
:1023B0000199086840F2FF3290438865FFE7019871
:1023C000806D02B07047000086B0059000208DF847
:1023D00013000598806A03900598806910BBFFE799
:1023E0000398029003281BD80299DFE801F0020D40
:1023F0000218059890F82F00C00720B1FFE70120D0
:102400008DF81300FFE70CE00598C06AB0F1C07FBB
:1024100004D1FFE701208DF81300FFE701E000E0A1
:10242000FFE745E005988069B0F5005F25D1FFE73B
:102430000398019003281ED80199DFE801F00206F5
:10244000021101208DF8130016E0059890F82F0076
:10245000C00720B1FFE701208DF81300FFE70BE074
:102460000598C06AB0F1C07F04D1FFE701208DF864
:102470001300FFE700E0FFE719E00398009003284E
:1024800004D3FFE70098032804D00EE001208DF864
:1024900013000BE0059890F82F00C00720B1FFE76C
:1024A00001208DF81300FFE700E0FFE7FFE7FFE7FB
:1024B0009DF8130006B0704784B00390029101921A
:1024C000009303980168086820F480200860009851
:1024D00003990968486003988068402809D1FFE79C
:1024E0000198039909688860029803990968C8608F
:1024F00008E00298039909688860019803990968BF
:10250000C860FFE704B0704781B041F20400CEF22A
:10251000000000680090009840F24451C2F20001AF
:102520000968884208D2FFE740F24851C2F2000130
:10253000086801300860FFE7009840F24451C2F299
:102540000001086001B0704780B584B0039041F28B
:102550000400CEF200000068029002980399096816
:10256000401A00EE100AB8EE400A40F24050C2F2A3
:10257000000090ED001AB8EE411A80EE010A8DEDD0
:10258000010A029803990860FFF7BEFF9DED010A5A
:102590009FED021A20EE010A04B080BD00007A44CB
:1025A0007047000080B586B0059040F28021C2F2ED
:1025B00000010420C1F8110040F26040C2F20000A6
:1025C000006941F21441C2F20001086041F2204169
:1025D000C2F200010220087040F2C831C2F20001CC
:1025E0000120087040F2F431C2F20001087041F29B
:1025F0000420C2F2000090ED000A40F24030C2F226
:10260000000090ED001AB4EE410AF1EE10FA1FDD61
:10261000FFE741F2CC11C2F200014FF040400860E8
:10262000FFE741F20420C2F2000090ED000A40F200
:102630004030C2F2000090ED001AB4EE410AF1EE13
:1026400010FA04DDFFE703200BF074F9E9E731E04D
:1026500041F20420C2F2000090ED000A40F2403046
:10266000C2F2000090ED001AB4EE410AF1EE10FA49
:102670001FDAFFE741F2CC11C2F200014FF08040B7
:102680000860FFE741F20420C2F2000090ED000A6A
:1026900040F24030C2F2000090ED001AB4EE410A60
:1026A000F1EE10FA04DAFFE703200BF043F9E9E753
:1026B000FFE7FFE741F2CC11C2F2000100200290D7
:1026C000086040F20C30C2F2000090ED000A41F2C6
:1026D0001440C2F20000DFED7B0A06F045FA0298D2
:1026E0000490FFE740F6D820C2F2000000780028EE
:1026F00040F0D580FFE740F24430C2F2000090ED98
:10270000000A41F23430C2F2000090ED002A40F29B
:102710004030C2F2000090ED001A20EE020A30EEC6
:10272000010A40F6D020C2F2000080ED000A90EDD0
:10273000000A41F20420C2F2000090ED001A30EECF
:10274000410A40F6EC60C2F2000080ED000A90ED14
:10275000000A40F24C30C2F2000090ED001A20EE68
:10276000010A40F6CC20C2F2000080ED000A90ED94
:10277000000A40F21030C2F2000090ED001AB1EEF3
:10278000411AB4EE410AF1EE10FA0FDAFFE740F217
:102790001030C2F2000090ED000AB1EE400A40F69F
:1027A000CC20C2F2000080ED000AFFE740F6CC200A
:1027B000C2F2000090ED000A40F21030C2F20000B8
:1027C00090ED001AB4EE410AF1EE10FA0BDDFFE7CE
:1027D00040F21030C2F20000006840F6CC21C2F294
:1027E00000010860FFE740F6CC20C2F2000090ED47
:1027F000000A9DED041A30EE410A8DED030A9DEDAD
:10280000030A40F20830C2F2000090ED001A9FED7A
:102810002E2A21EE021AB4EE410AF1EE10FA0DDA78
:10282000FFE740F20830C2F2000090ED000A9FED91
:10283000261A20EE010A8DED030AFFE79DED030A3B
:1028400040F25440C2F2000090ED001A9FED1E2AA3
:1028500021EE021AB4EE410AF1EE10FA0DDDFFE7A7
:1028600040F25440C2F2000090ED000A9FED161AAB
:1028700020EE010A8DED030AFFE79DED040A9DEDB0
:10288000031A30EE010A41F2CC10C2F2000080EDD2
:10289000000A006804900A200BF04CF822E7059922
:1028A0000120087040F28060C2F20000006800233E
:1028B000019319461A460BF08FFC01980BF0FCF8B7
:1028C00006B080BD6F12833A0AD7233C80B582B030
:1028D000019040F29820C2F20000006840F6BC214E
:1028E000C2F200010860FFE70020C4F2020080216C
:1028F00002F0ECF8012804D1FFE705200BF01AF8EC
:10290000F2E764200BF016F841F22041C2F2000118
:102910000220087040F23430C2F2000090ED000A4C
:102920009FED221A30EE010A40F23830C2F2000068
:1029300090ED001A30EE010A9FED1D1A20EE010AFB
:102940009FED1C1A80EE010A40F23C30C2F20000FA
:10295000D0ED000A41F21440C2F2000006F004F982
:10296000FFE703200AF0E6FFFFE70020C4F20200C1
:10297000802102F0ABF80028F3D0FFE740F6BC203E
:10298000C2F2000000230093036001990120087047
:1029900040F28060C2F20000006819461A460BF04F
:1029A0001BFC00980BF088F802B080BD0000B44218
:1029B000DB0F49400000344372B6FFE7FEE700003A
:1029C00080B59EB08DED1C0ACDED1B0A1A909DEDD1
:1029D0001B0A9DED1C1A30EE410A1A9880ED0A0A76
:1029E0001A984C30FFF7B0FD8DED140A1A9890ED4F
:1029F0000A0A90ED0F1A30EE410A9DED141A80EE8E
:102A0000010A80ED0B0A1A99886AC8631A9890ED3A
:102A10000A0A90ED0E1AB0EEC00AB4EE410AF1EEC9
:102A200010FAC0F28C83FFE71A9890ED081A90ED27
:102A30000A0AB4EE410AF1EE10FA03DBFFE70620C2
:102A4000139042E01A9890ED081A90ED0A0AB1EE40
:102A5000411AB4EE410AF1EE10FA03DCFFE7002060
:102A600012902FE01A9890ED0A0AB5EE400AF1EEA6
:102A700010FA12DBFFE71A9890ED081A90ED0A0A97
:102A8000B0EE082A81EE021A80EE010ABDEEC00AFD
:102A900010EE100A0330119011E01A9890ED081A08
:102AA00090ED0A0AB0EE082A81EE021A80EE010AC1
:102AB000BDEEC00A10EE100A02301190FFE7119827
:102AC0001290FFE712981390FFE713988DF85700C4
:102AD0001A9890ED081A90ED0A0AB4EE410AF1EE48
:102AE00010FA03DBFFE70620109042E01A9890ED01
:102AF000081A90ED0A0AB1EE411AB4EE410AF1EE5D
:102B000010FA03DCFFE700200F902FE01A9890EDF9
:102B10000A0AB5EE400AF1EE10FA12DBFFE71A9846
:102B200090ED081A90ED0A0AB0EE082A81EE021A1A
:102B300080EE010ABDEEC00A10EE100A04300E90BD
:102B400011E01A9890ED081A90ED0A0AB0EE082AE2
:102B500081EE021A80EE010ABDEEC00A10EE100AE4
:102B600003300E90FFE70E980F90FFE70F9810903C
:102B7000FFE710988DF855001A9890ED091A90ED1E
:102B80000B0AB4EE410AF1EE10FA03DBFFE7062070
:102B90000D9042E01A9890ED091A90ED0B0AB1EEF3
:102BA000411AB4EE410AF1EE10FA03DCFFE700200F
:102BB0000C902FE01A9890ED0B0AB5EE400AF1EE5A
:102BC00010FA12DBFFE71A9890ED091A90ED0B0A44
:102BD000B0EE082A81EE021A80EE010ABDEEC00AAC
:102BE00010EE100A03300B9011E01A9890ED091ABC
:102BF00090ED0B0AB0EE082A81EE021A80EE010A6F
:102C0000BDEEC00A10EE100A02300B90FFE70B98E1
:102C10000C90FFE70C980D90FFE70D988DF856008B
:102C20001A9890ED091A90ED0B0AB4EE410AF1EEF4
:102C300010FA03DBFFE706200A9042E01A9890EDB5
:102C4000091A90ED0B0AB1EE411AB4EE410AF1EE09
:102C500010FA03DCFFE7002009902FE01A9890EDAE
:102C60000B0AB5EE400AF1EE10FA12DBFFE71A98F4
:102C700090ED091A90ED0B0AB0EE082A81EE021AC7
:102C800080EE010ABDEEC00A10EE100A0430089072
:102C900011E01A9890ED091A90ED0B0AB0EE082A8F
:102CA00081EE021A80EE010ABDEEC00A10EE100A93
:102CB00003300890FFE708980990FFE709980A9009
:102CC000FFE70A988DF854009DF8550028B9FFE7F2
:102CD000B7EE000A8DED070A26E09DF8570006289A
:102CE00005D1FFE79FEDEC0A8DED060A17E09DF890
:102CF000550000EE100AB8EEC00A1A9890ED083A96
:102D000090ED0A2AB0EE081A83EE013A82EE032A09
:102D100030EE420A30EE410A8DED060AFFE79DEDE6
:102D2000060A8DED070AFFE79DED070A8DED190AEA
:102D30009DF85700062805D1FFE7B7EE000A8DED94
:102D4000050A25E09DF8550028B9FFE79FEDD20A56
:102D50008DED040A17E01A9890ED082A90ED0A0A02
:102D6000B0EE081A82EE012A80EE020A9DF85700A2
:102D700002EE100AB8EEC22A30EE420A30EE010A24
:102D80008DED040AFFE79DED040A8DED050AFFE7CE
:102D90009DED050A8DED170A9DF8540028B9FFE74F
:102DA000B7EE000A8DED030A26E09DF856000628CE
:102DB00005D1FFE79FEDE90A8DED020A17E09DF8C6
:102DC000540000EE100AB8EEC00A1A9890ED093AC5
:102DD00090ED0B2AB0EE081A83EE013A82EE032A38
:102DE00030EE420A30EE410A8DED020AFFE79DED1A
:102DF000020A8DED030AFFE79DED030A8DED180A27
:102E00009DF85600062805D1FFE7B7EE000A8DEDC4
:102E1000010A25E09DF8540028B9FFE79FEDCF0A8D
:102E20008DED000A17E01A9890ED092A90ED0B0A33
:102E3000B0EE081A82EE012A80EE020A9DF85600D2
:102E400002EE100AB8EEC22A30EE420A30EE010A53
:102E50008DED000AFFE79DED000A8DED010AFFE709
:102E60009DED010A8DED160A9DED193A9DED181A9A
:102E700023EE010A9DF85700C0EBC00140F290100C
:102E8000C2F2000000EB81029DF8561002EB8103B4
:102E900093ED004A9DED162A23EE023A9DF8553037
:102EA000C3EBC30300EB830000EB810191ED005AFB
:102EB00023EE053A20EE040A30EE033A9DED170AA0
:102EC00020EE011A9DF8541002EB810292ED004AA7
:102ED00021EE041A31EE031A20EE020A00EB810003
:102EE00090ED002A20EE020A30EE010A1A9880EDD9
:102EF000100A9DED193A9DED181A23EE010A9DF86E
:102F00005700C0EBC00140F2CC00C2F2000000EB61
:102F100081029DF8561002EB810393ED004A9DED6E
:102F2000162A23EE023A9DF85530C3EBC30300EB9B
:102F3000830000EB810191ED005A23EE053A20EE6B
:102F4000040A30EE033A9DED170A20EE011A9DF8AF
:102F5000541002EB810292ED004A21EE041A31EE88
:102F6000031A20EE020A00EB810090ED002A20EE09
:102F7000020A30EE010A1A9880ED110A9DED193A05
:102F80009DED181A23EE010A9DF85700C0EBC00111
:102F900040F20800C2F2000000EB81029DF85610DA
:102FA00002EB810393ED004A9DED162A23EE023ACF
:102FB0009DF85530C3EBC30300EB830000EB8101A8
:102FC00091ED005A23EE053A20EE040A30EE033A62
:102FD0009DED170A20EE011A9DF8541002EB8102B4
:102FE00092ED004A21EE041A31EE031A20EE020A95
:102FF00000EB810090ED002A20EE020A30EE010A7B
:103000001A9880ED120A1A9890ED000A90ED101AA5
:10301000B0EE083A31EE031A20EE010AB1EE081ABA
:1030200080EE010A80ED030A1A9890ED010A90EDF6
:10303000112A32EE032A20EE020A80EE010A80ED08
:10304000040A1A9890ED020A90ED122A32EE032A31
:1030500020EE020A80EE010A80ED050A1A9890ED32
:10306000040A90ED061A90ED0A2A20EE020A9DED60
:10307000142A20EE020A30EE010A80ED060A1A98A0
:1030800090ED060A90ED071AB1EE411AB4EE410A2E
:10309000F1EE10FA0ADA01E0000000001A9890ED53
:1030A000070AB1EE400A80ED060AFFE71A9890ED94
:1030B000060A90ED071AB4EE410AF1EE10FA04DDAB
:1030C000FFE71A99C8698861FFE71A9890ED031A1B
:1030D00090ED050A90ED062A90ED0A3A21EE031ACA
:1030E00031EE021A90ED0B2A20EE020A30EE010AB0
:1030F00080ED0C0A1A9890ED0C0A90ED0D1AB1EEC5
:10310000411AB4EE410AF1EE10FA08DAFFE71A9814
:1031100090ED0D0AB1EE400A80ED0C0AFFE71A9817
:1031200090ED0C0A90ED0D1AB4EE410AF1EE10FA92
:1031300004DDFFE71A99486B0863FFE706E01A9978
:10314000002088611A9908631D9003E01A98006BAB
:103150001D90FFE79DED1D0A1EB080BD0000000020
:1031600088B08DED070ACDED060A8DED051ACDED7F
:10317000041A8DED032ACDED022A8DED013A00905F
:10318000079800990860069800994860059800998A
:10319000886004980099C861029800994863019872
:1031A0000099886300990020C8600099086100991F
:1031B0004861009988619DED030A9FED0A1AB4EEFB
:1031C000410AF1EE10FA04DAFFE74FF07E50039067
:1031D000FFE703980099086203980099486201206C
:1031E00008B07047ACC5273784B0029001910298AF
:1031F00090F820008DF803009DF80300012805D009
:10320000FFE79DF8030002280AD1FFE7019A029820
:10321000016848691043486100208DF80F0008E0FC
:103220000299486A40F48020486201208DF80F001E
:10323000FFE79DF80F0004B07047000088B00690CB
:10324000059104920393069890F820008DF80700EA
:1032500006980068806800900598806808B9FFE7C4
:1032600000E0FFE79DF80700012806D0FFE79DF882
:103270000700022840F08080FFE79DF80300400728
:1032800000280CD4FFE79DF803000007002806D4AF
:10329000FFE79DF80300C006002864D5FFE700980B
:1032A000C0F30160029002990120884003990860F0
:1032B0000598806868B9FFE705980168C06840EA2A
:1032C000415006990968029A01EB0211C1F8800188
:1032D0000EE005994A688868C96840EAC200084358
:1032E00006990968029A01EB0211C1F88001FFE713
:1032F0000598006906990968029A01EB0211C1F864
:1033000084010598007D01280CD1FFE7069800682C
:10331000029900EB0111D1F8840140F48070C1F8EA
:103320008401FFE70498406806990968029A01EB56
:103330000211C1F88C010498006806990968029A84
:1033400001EB0211C1F8880106980068029900EBB0
:103350000111D1F8800140F00100C1F88001002086
:103360008DF81F0011E00699486A40F40010486289
:1033700001208DF81F0008E00699486A40F480207B
:10338000486201208DF81F00FFE79DF81F0008B07C
:103390007047000086B00490039104980068019083
:1033A000049890F820008DF803009DF80300012890
:1033B00006D0FFE79DF80300022840F0B080FFE749
:1033C00046F20040C4F2000001900199D1F80002D9
:1033D00040F00100C1F800020199D1F8000220F488
:1033E0007C50C1F800020398426A0199D1F80002AA
:1033F00040EA0220C1F800020398406900F01F0172
:10340000012088400290029A0199D1F81C02904351
:10341000C1F81C020398C069F0B9FFE7029A01994C
:10342000D1F80C029043C1F80C02039A9088D1683D
:10343000526940EA0140019901EBC201C1F8400222
:10344000039A10889168526940EA0140019901EBA2
:10345000C201C1F84402FFE70398C06901281ED1E8
:10346000FFE7029A0199D1F80C021043C1F80C024F
:10347000039A90881168526940EA0140019901EB72
:10348000C201C1F84002039A90899168526940EAEA
:103490000140019901EBC201C1F84402FFE7039822
:1034A000806940B9FFE7029A0199D1F8040290437C
:1034B000C1F8040207E0029A0199D1F8040210430E
:1034C000C1F80402FFE70398006940B9FFE7029AD8
:1034D0000199D1F814029043C1F8140207E0029A4E
:1034E0000199D1F814021043C1F81402FFE70398C0
:1034F000006A012808D1FFE7029A0199D1F81C025D
:103500001043C1F81C02FFE70199D1F8000220F036
:103510000100C1F8000200208DF8170008E00499AE
:10352000486A40F48020486201208DF81700FFE7C8
:103530009DF8170006B0704781B0009000980068B1
:1035400046F20041C4F20001884208D1FFE740F68C
:103550008821C2F20001086801300860FFE7009886
:10356000006846F60001C4F20001884208D1FFE776
:1035700040F68C21C2F20001086801300860FFE7C4
:1035800001B0704786B004900391029201930498B1
:1035900090F820008DF803009DF80300012806D064
:1035A000FFE79DF80300022840F0E880FFE703985A
:1035B00080B9FFE704980068C068800748B9FFE752
:1035C0000499486A40F40010486201208DF8170001
:1035D000DDE00FE0049800680069800748B9FFE764
:1035E0000499486A40F40010486201208DF81700E1
:1035F000CDE0FFE704980068039900EB0110D0F8D4
:10360000B00100F00400029988600298806858B9FF
:10361000FFE704980068039900EB0110D0F8B001AF
:10362000400D029908600AE004980068039900EBD5
:103630000110D0F8B001C00802994860FFE7049873
:103640000068039900EB0110D0F8B00100F002000F
:103650000299C86004980068039900EB0110D0F843
:10366000B40100F00F00082804D3FFE702990820F6
:1036700008610BE004980068039900EB0110D0F892
:10368000B40100F00F0002990861FFE70498006898
:10369000039900EB0110D0F8B40180B2000A02993E
:1036A000886104980068039900EB0110D0F8B40118
:1036B000000C0299486104980068039900EB01101E
:1036C000D0F8B8010199087004980068039900EBDC
:1036D0000110D0F8B801000A0199487004980068F8
:1036E000039900EB0110D0F8B801000C0199887023
:1036F00004980068039900EB0110D0F8B801000E9F
:103700000199C87004980068039900EB0110D0F883
:10371000BC010199087104980068039900EB01103D
:10372000D0F8BC01000A0199487104980068039917
:1037300000EB0110D0F8BC01000C019988710498CD
:103740000068039900EB0110D0F8BC01000E01994C
:10375000C871039838B9FFE704980168C86840F059
:103760002000C86006E004980168086940F0200065
:103770000861FFE700208DF8170008E00499486A07
:1037800040F48020486201208DF81700FFE79DF883
:10379000170006B07047000080B58AB0099000207D
:1037A0000890099800684069079009980068406887
:1037B0000690099800688068059009980068C068BC
:1037C000049009980068006903900998006880696E
:1037D00002909DF81C00C007002800F09480FFE7CD
:1037E0009DF81400C00758B3FFE70998016801204D
:1037F00088609DF814008007002804D5FFE7099829
:1038000000F02EFC1BE09DF814004007002805D5B1
:10381000FFE7089840F4006008900FE09DF814005E
:103820000007002805D5FFE7089840F4805008906D
:1038300003E0099800F010FCFFE7FFE7FFE7FFE770
:103840009DF81500C00760B3FFE7099801684FF4C1
:10385000807088609DF815008007002804D5FFE778
:10386000099800F005FC1BE09DF8150040070028B2
:1038700005D5FFE7089840F4005008900FE09DF848
:1038800015000007002805D5FFE7089840F48040A0
:10389000089003E0099800F0E7FBFFE7FFE7FFE788
:1038A000FFE79DF81600C00760B3FFE709980168BD
:1038B0004FF4803088609DF816008007002804D5FA
:1038C000FFE7099800F0DCFB1BE09DF816004007BD
:1038D000002805D5FFE7089840F4004008900FE065
:1038E0009DF816000007002805D5FFE7089840F46A
:1038F0008030089003E0099800F0BEFBFFE7FFE787
:10390000FFE7FFE7FFE79DF81C000007002810D540
:10391000FFE79DF81000C006002809D5FFE70898CA
:1039200040F400700890099801681020C860FFE713
:10393000FFE79DF81C00400700280FD5FFE79DF822
:1039400010000007002808D5FFE709980168082043
:10395000C860099800F0E2FAFFE7FFE79DF81C0055
:10396000800700280BD5FFE709980068C06880072A
:1039700020B1FFE7099800F0D5FAFFE7FFE79DF8CF
:103980001C004006002810D5FFE79DF80C00C0067B
:10399000002809D5FFE7089840F48060089009984E
:1039A000016810200861FFE7FFE79DF81C00800612
:1039B00000280FD5FFE79DF80C000007002808D568
:1039C000FFE70998016808200861099800F0D8FA13
:1039D000FFE7FFE79DF81C00C00600280BD5FFE7B6
:1039E000099800680069800720B1FFE7099800F096
:1039F000CBFAFFE7FFE79DF81E00800700280FD5F0
:103A0000FFE79DF81800C006002808D5FFE70998D1
:103A1000016810204860099800F0D4FAFFE7FFE73A
:103A20009DF81E00C00778B1FFE79DF81800000759
:103A3000002808D5FFE70998016808204860099820
:103A400000F022FBFFE7FFE79DF81D0000060028BD
:103A500040F18D80FFE79DF818004007002840F1F5
:103A60008180FFE79DF81D00C00750B1FFE79DF87A
:103A70000800C00728B1FFE7089840F0010008904F
:103A8000FFE79DF81D00800700280BD5FFE79DF894
:103A900008008007002805D5FFE7089840F00200DD
:103AA0000890FFE79DF81D00400700280BD5FFE7B1
:103AB0009DF808004007002805D5FFE7089840F06A
:103AC00004000890FFE79DF81D000007002848D576
:103AD000FFE79DF8080010F0700F42D0FFE7029852
:103AE00000F0700001460191102814D0FFE7019802
:103AF000202815D0FFE70198302816D0FFE701985D
:103B0000402817D0FFE70198502818D0FFE7019808
:103B1000602819D01DE0089840F00800089019E0CE
:103B2000089840F01000089014E0089840F0200039
:103B300008900FE0089840F0400008900AE00898CC
:103B400040F08000089005E0089840F480700890EC
:103B500000E0FFE709980168886920F0700088613B
:103B6000FFE7FFE70998016804204860FFE708982D
:103B700048B1FFE7089A0999486A104348620998D2
:103B8000FFF7DAFCFFE70AB080BD000080B584B023
:103B90000290029820B9FFE701208DF80F00E0E0C5
:103BA000029890F8200020B9FFE7029800F0DEF8B4
:103BB000FFE702980168086840F00100086000F023
:103BC000B5FF0190FFE7029800684068C007A8B9F8
:103BD000FFE700F0ABFF0199401A0B280DD3FFE778
:103BE0000299486A40F4003048620299052081F841
:103BF000200001208DF80F00B3E0E4E7029801688F
:103C0000086820F00200086000F090FF0190FFE7D4
:103C10000298006840688007002815D5FFE700F08B
:103C200085FF0199401A0B280DD3FFE70299486AD6
:103C300040F4003048620299052081F820000120FC
:103C40008DF80F008DE0E3E70298007E012807D190
:103C5000FFE702980168086840F08000086006E00D
:103C600002980168086820F080000860FFE7029869
:103C7000407E012807D1FFE702980168086840F0FC
:103C80004000086006E002980168086820F04000E3
:103C90000860FFE70298807E012807D1FFE70298BD
:103CA0000168086840F02000086006E0029801689A
:103CB000086820F020000860FFE70298C07E012815
:103CC00007D1FFE702980168086820F0100008603B
:103CD00006E002980168086840F010000860FFE7FD
:103CE0000298007F012807D1FFE702980168086861
:103CF00040F00800086006E002980168086820F0BB
:103D000008000860FFE70298407F012807D1FFE71D
:103D100002980168086840F00400086006E0029814
:103D20000168086820F004000860FFE7029B19683A
:103D30005A689868D3F80CC040EA0C00D3F810C059
:103D400040EA0C005B691843013A1043C8610299CC
:103D500000204862029A012182F820108DF80F009D
:103D6000FFE79DF80F0004B080BD000080B594B05F
:103D7000139000201290119010900F900E901398B5
:103D8000006846F20041C4F20001884255D1FFE7C5
:103D900040F25C50C2F2000001680131016000682D
:103DA000012812D1FFE7FFE700200D9043F6400005
:103DB000C4F20200016841F000710160006800F087
:103DC00000700D900D98FFE7FFE7FFE700200C90D3
:103DD00043F63000C4F20200016841F002010160C4
:103DE000006800F002000C900C98FFE74FF4407060
:103DF0000E9002200F900020079010900320119049
:103E00000920129040F20040C4F202000EA900F016
:103E100081FC079A132005900521069100F062FFAE
:103E2000059800F055FF0699079A1420089000F0B5
:103E300059FF089800F04CFF6EE01398006846F6B2
:103E40000001C4F20001884265D1FFE7FFE70020CE
:103E50000B9043F64000C4F20200016841F080611B
:103E60000160006800F080600B900B98FFE740F263
:103E70005C50C2F200000168013101600068012855
:103E800012D1FFE7FFE700200A9043F64000C4F29A
:103E90000200016841F000710160006800F00070EC
:103EA0000A900A98FFE7FFE7FFE70020099043F632
:103EB0003000C4F20200016841F0020101600068B4
:103EC00000F0020009900998FFE760200E900220A0
:103ED0000F90002003901090032011900920129061
:103EE00040F20040C4F202000EA900F013FC039A55
:103EF0003F2001900521029100F0F4FE019800F0AE
:103F0000E7FE0299039A4120049000F0EBFE04982A
:103F100000F0DEFEFFE7FFE714B080BD81B0009047
:103F200001B0704780B586B00590059803A901914E
:103F3000FEF75CF9019B02900599029A40F29C20E1
:103F4000C2F2000004F0B6FA019A029940F2583029
:103F5000C2F2000005F0AEFB019A029940F29030E7
:103F6000C2F2000005F0A6FB019B0599029A40F2FF
:103F70006040C2F2000006F007FF06B080BD0000FE
:103F800081B0009001B0704780B586B0059005986B
:103F900003A90191FEF72AF9019B02900599029A63
:103FA00040F29C20C2F2000004F084FA019B0599C3
:103FB000029A40F26040C2F2000006F0E5FE06B050
:103FC00080BD000081B0009001B0704780B584B022
:103FD0000290029890F8200001282FD1FFE7029963
:103FE000022081F8200002980168086820F0010092
:103FF000086000F09BFD0190FFE7029800684068B0
:10400000C007A8B1FFE700F091FD0199401A0B2805
:104010000DD3FFE70299486A40F4003048620299E4
:10402000052081F8200001208DF80F000FE0E4E763
:104030000299002048628DF80F0008E00299486A52
:1040400040F40020486201208DF80F00FFE79DF842
:104050000F0004B080BD000081B0009001B0704737
:1040600081B0009001B0704781B0009001B07047FE
:1040700081B0009001B0704781B0009001B07047EE
:1040800081B0009001B0704781B0009001B07047DE
:1040900080B584B002900298806D019000F046FDDA
:1040A0000090029890F8350002280DD0FFE70299A1
:1040B00080204865FFE70299002081F83400FFE77F
:1040C00001208DF80F0055E002980168086820F083
:1040D0001600086002980168486920F08000486175
:1040E0000298006C20B9FFE70298806C38B1FFE7B6
:1040F00002980168086820F008000860FFE702984D
:104100000168086820F001000860FFE70298006875
:104110000068C007C8B1FFE700F008FD0099401A29
:10412000062811D3FFE70299202048650299032051
:1041300081F83500FFE70299002081F83400FFE79D
:1041400003208DF80F0015E0E0E70298C16D3F20D5
:104150008840019988600299012081F83500FFE7C5
:104160000299002081F83400FFE7FFE700208DF876
:104170000F00FFE79DF80F0004B080BD82B00090F3
:10418000009890F83500022807D0FFE700998020BA
:10419000486501208DF807000EE00099052081F8A0
:1041A000350000980168086820F001000860FFE70A
:1041B00000208DF80700FFE79DF8070002B0704768
:1041C00080B586B005900020039040F26820C2F2CE
:1041D0000000006848F2B511C1F64E31A0FB011095
:1041E000800A02900598806D019001980068049003
:1041F00004980599C96DC840000700281AD5FFE743
:104200000598006800684007002812D5FFE7059868
:104210000168086820F0040008600598C16D082056
:104220008840019988600599486D40F00100486513
:10423000FFE7FFE704980599C96DC840C007A0B122
:10424000FFE7059800684069000600280CD5FFE7E5
:104250000598C16D01208840019988600599486DD5
:1042600040F002004865FFE7FFE704980599C96D33
:10427000C8404007002814D5FFE70598006800688B
:10428000800700280CD5FFE70598C16D0420884001
:10429000019988600599486D40F004004865FFE782
:1042A000FFE704980599C96DC840C006002847D5A6
:1042B000FFE7059800680068000700283FD5FFE782
:1042C0000598C16D102088400199886005980068A4
:1042D0000068400300281AD5FFE7059800680068C9
:1042E0000003002809D4FFE70598006C20B1FFE720
:1042F0000598016C8847FFE708E00598806C20B1BD
:10430000FFE70598816C8847FFE7FFE716E005980F
:1043100000680068C005002807D4FFE70598016819
:10432000086820F008000860FFE70598006C20B1DD
:10433000FFE70598016C8847FFE7FFE7FFE7FFE726
:1043400004980599C96DC8408006002840F18D8009
:10435000FFE7059800680068C006002840F18480E7
:10436000FFE70598C16D2020884001998860059875
:1043700090F83500052834D1FFE7059801680868F2
:1043800020F01600086005980168486920F0800058
:1043900048610598006C20B9FFE70598806C38B13A
:1043A000FFE705980168086820F008000860FFE74B
:1043B0000598C16D3F2088400199886005990120CA
:1043C00081F83500FFE70599002081F83400FFE708
:1043D0000598006D20B1FFE70598016D8847FFE75C
:1043E0007BE0059800680068400300281AD5FFE7C5
:1043F0000598006800680003002809D4FFE70598C5
:10440000406C20B1FFE70598416C8847FFE708E062
:104410000598C06B20B1FFE70598C16B8847FFE79F
:10442000FFE720E0059800680068C005002811D467
:10443000FFE705980168086820F0100008600599FA
:10444000012081F83500FFE70599002081F834004C
:10445000FFE7FFE70598C06B20B1FFE70598C16B48
:104460008847FFE7FFE7FFE7FFE70598406DA0B348
:10447000FFE70598406DC00730B3FFE705990520B9
:1044800081F8350005980168086820F0010008608F
:10449000FFE70398013003900299884201D9FFE7B2
:1044A00007E0FFE7059800680068C0070028F0D122
:1044B000FFE70599012081F83500FFE70599002005
:1044C00081F83400FFE7FFE70598C06C20B1FFE7F3
:1044D0000598C16C8847FFE7FFE706B080BD000084
:1044E00080B586B004900020039000F01FFB02907E
:1044F000049820B9FFE701208DF81700A3E0049885
:10450000406A08B1FFE7FFE70499022081F835000F
:10451000FFE70499002081F83400FFE70498016860
:10452000086820F001000860FFE704980068006850
:10453000C00790B1FFE700F0F9FA0299401A062887
:104540000AD3FFE70499202048650499032081F8E5
:1045500035008DF8170076E0E7E7049800680068FA
:104560000390039848F23F01CFF2100108400390F6
:10457000049900914868D1F808C0CB680A6940EAFC
:104580000C00184310434A6910438A691043CA69F2
:104590001043096A01430398084303900498406A52
:1045A000042808D1FFE70499C86A096B01430398FE
:1045B00008430390FFE7039804990968086004988A
:1045C000006840690390039820F007000390049866
:1045D000416A0398084303900498406A04281AD15A
:1045E000FFE70498816A0398084303900498C06A1F
:1045F00080B1FFE70498FDF7E7FE50B1FFE70499AB
:10460000402048650499012081F835008DF8170095
:1046100019E0FFE7FFE703980499096848610498E7
:10462000FDF7A6FE01900498C16D3F2088400199D6
:104630008860049900204865049A012182F83510A9
:104640008DF81700FFE79DF8170006B080BD000049
:1046500080B588B0069005910492039300208DF8F0
:104660000B000698806D0190FFE7069890F83400E3
:10467000012804D1FFE702208DF81F0045E00699CC
:10468000012081F83400FFE7FFE7069890F8350035
:1046900001282BD1FFE70699022081F83500069901
:1046A0000020486506980599049A039BFDF704FFCE
:1046B0000698C16D3F20884001998860069801687E
:1046C000086840F0160008600698006C38B1FFE7F3
:1046D00006980168086840F008000860FFE706983F
:1046E0000168086840F00100086009E0FFE70699EA
:1046F000002081F83400FFE702208DF80B00FFE76F
:104700009DF80B008DF81F00FFE79DF81F0008B013
:1047100080BD00008EB00D900C9100200A90099091
:1047200008900B90FFE70B980F2800F2CC81FFE771
:104730000B99012088400A900C9800680A9908405B
:10474000099009980A99884240F0B881FFE70C98CF
:10475000406800F00300012807D0FFE70C9840688C
:1047600000F0030002282FD1FFE70D988068089021
:104770000B984100032000FA01F108988843089043
:104780000C98C0680B99490000FA01F10898084399
:10479000089008980D9988600D98406808900B99CA
:1047A000012000FA01F10898884308900C984068AD
:1047B000C0F300100B9900FA01F108980843089023
:1047C00008980D994860FFE70C98406800F00300D6
:1047D000032818D0FFE70D98C06808900B98410097
:1047E000032000FA01F10898884308900C9880682B
:1047F0000B99490000FA01F10898084308900898BD
:104800000D99C860FFE70C98406800F0030002288B
:1048100026D1FFE70D980B996FF0030202EA5101D0
:104820000844006A08900B9800F0070081000F20F0
:1048300000FA01F10898884308900C9800690B99D8
:1048400001F00701890000FA01F108980843089077
:1048500008980D990B9B02EA530211440862FFE786
:104860000D98006808900B984100032000FA01F1B0
:104870000898884308900C98406800F003000B9952
:10488000490000FA01F108980843089008980D992A
:1048900008600C9880798007002800F00E81FFE7FF
:1048A000FFE70020079043F64400C4F202000168CD
:1048B00041F480410160006800F48040079007984F
:1048C000FFE70B9820F0030043F60801C4F2010152
:1048D000405808900B9800F0030081000F2000FA68
:1048E00001F10898884308900D980021C4F2020154
:1048F000884203D1FFE7002006905EE00D9840F269
:104900000041C4F20201884203D1FFE70120059073
:1049100050E00D9840F60001C4F20201884203D134
:10492000FFE70220049042E00D9840F60041C4F2F7
:104930000201884203D1FFE70320039034E00D9881
:1049400041F20001C4F20201884203D1FFE70420D2
:10495000029026E00D9841F20041C4F20201884223
:1049600003D1FFE70520019018E00D9841F6000102
:10497000C4F20201884203D1FFE7062000900AE05A
:104980000D9941F60042C4F202020820914208BF8C
:1049900007200090FFE700980190FFE70198029040
:1049A000FFE702980390FFE703980490FFE704985D
:1049B0000590FFE705980690FFE70698C0B20B99AF
:1049C00001F00301890000FA01F1089808430890FA
:1049D00008980B9921F0030143F60802C4F2010282
:1049E000885043F60840C4F2010000680890099915
:1049F0000898884308900C988079C006002805D54F
:104A0000FFE70999089808430890FFE7089843F6DC
:104A10000841C4F20101086043F60C40C4F20100F1
:104A20000068089009990898884308900C98807944
:104A30008006002805D5FFE70999089808430890E3
:104A4000FFE7089843F60C41C4F20101086043F601
:104A50000440C4F20100006808900999089888434E
:104A600008900C9880798007002805D5FFE7099900
:104A7000089808430890FFE7089843F60441C4F2F9
:104A80000101086043F60040C4F20100006808908C
:104A900009990898884308900C988079C00728B134
:104AA000FFE70999089808430890FFE7089843F63C
:104AB0000041C4F201010860FFE7FFE7FFE70B9840
:104AC00001300B902FE60EB07047000082B00190CD
:104AD000ADF8021001980069BDF80210084204D038
:104AE000FFE701208DF8010003E000208DF80100B0
:104AF000FFE79DF8010002B07047000082B001900E
:104B0000ADF802108DF801209DF8010028B1FFE7F3
:104B1000BDF802000199886105E0BDF802000004BB
:104B200001998861FFE702B07047000045F27C0000
:104B3000C2F200000068704740F2D040C2F20000AC
:104B4000027845F27C01C2F2000108681044086056
:104B50007047000080B543F60041C4F202010868C6
:104B600040F400700860086840F4806008600868DD
:104B700040F480700860032000F0CEF80F2000F0B1
:104B800005F800F079F8002080BD000080B58CB0F9
:104B90000B90002004900390FFE70020009043F664
:104BA0004000C4F20200016841F0010101600068A8
:104BB00000F0010000900098FFE706A802A900F0AD
:104BC000E5F909980490049820B9FFE700F00EFA7F
:104BD000059004E000F00AFA40000590FFE7059810
:104BE0004DF68361C4F21B31A0FB01014FF0FF3091
:104BF00000EB9140039040F68070C2F200004FF04D
:104C00008041016040F2E731C160039941600021B9
:104C100001618160816100F0D5FE8DF807009DF88B
:104C2000070028BBFFE740F68070C2F2000000F0EA
:104C300037FF8DF807009DF80700C0B9FFE71C207B
:104C400000F046F80B980F280CD8FFE70B991C20B2
:104C5000002200F047F80B9840F2D441C2F2000164
:104C6000086003E001208DF80700FFE7FFE7FFE79A
:104C70009DF807000CB080BD80B582B0FFE7002032
:104C8000019043F64400C4F20200016841F48041FF
:104C90000160006800F4804001900198FFE7FFE7A1
:104CA0000020009043F64000C4F20200016841F089
:104CB00080510160006800F0805000900098FFE78C
:104CC0006FF001000F21002200F00CF802B080BD4F
:104CD00080B582B08DF807009DF9070007F006FA4D
:104CE00002B080BD80B586B08DF8170004910392A4
:104CF0000020029007F012FA02909DF9170001902F
:104D000002980499039A04F09FFC0146019807F069
:104D10000DFA06B080BD000080B582B00190019808
:104D200007F026FA02B080BD80B584B002900191F0
:104D3000029820B9FFE701208DF80F0021E10198CA
:104D400043F60041C4F20201096801F007018842FC
:104D500012D9FFE7019943F60040C4F20200017046
:104D6000006800F007000199884204D0FFE70120A5
:104D70008DF80F0005E1FFE7029800788007002812
:104D80002AD5FFE7029800784007002809D5FFE7F9
:104D900043F60801C4F20201086840F4E0500860DC
:104DA000FFE7029800780007002809D5FFE743F6DF
:104DB0000801C4F20201086840F460400860FFE79F
:104DC00043F60801C4F20201086820F0F000029ADC
:104DD000926810430860FFE702980078C007002837
:104DE0006ED0FFE702984068012811D1FFE743F633
:104DF0000000C4F20200006800F400310020B0EBB3
:104E0000514F04D1FFE701208DF80F00B9E02CE0ED
:104E100002984068022805D0FFE7029840680328FE
:104E200011D1FFE743F60000C4F20200006800F071
:104E300000710020B0EB516F04D1FFE701208DF825
:104E40000F009EE010E043F60000C4F2020000688C
:104E500000F002010020B0EB510F04D1FFE7012068
:104E60008DF80F008DE0FFE7FFE743F60801C4F27D
:104E70000201086820F00300029A5268104308609B
:104E8000FFF754FE0090FFE743F60800C4F202006B
:104E9000006800F00C0002994968B0EB810F0ED059
:104EA000FFE7FFF743FE0099401A41F2893188423B
:104EB00004D3FFE703208DF80F0062E0E4E7FFE78B
:104EC000019843F60041C4F20201096801F00701AC
:104ED000884212D2FFE7019943F60040C4F2020073
:104EE0000170006800F007000199884204D0FFE7D4
:104EF00001208DF80F0044E0FFE70298007840079A
:104F000000280CD5FFE743F60801C4F20201086847
:104F100020F4E050029AD26810430860FFE702983C
:104F20000078000700280DD5FFE743F60801C4F21A
:104F30000201086820F46040029A126940EAC20047
:104F40000860FFE700F076F843F60801C4F20201BA
:104F50000968C9B20A0941F26861C0F60101895CB9
:104F6000C84040F26821C2F20001086040F2D4401B
:104F7000C2F200000068FFF709FE00208DF80F0064
:104F8000FFE79DF80F0004B080BD000082B00190E3
:104F9000009101990F20086043F60800C4F2020056
:104FA000016801F00301019A5160016801F0F0010C
:104FB000019A9160016801F4E051019AD1600068A2
:104FC00000F46040C0080199086143F60040C4F253
:104FD0000200006800F007000099086002B0704706
:104FE00040F26820C2F200000068704780B5FFF709
:104FF000F7FF43F60801C4F202010968C1F38222F7
:1050000041F27861C0F60101895CC84080BD0000B2
:1050100080B5FFF7E5FF43F60801C4F20201096815
:1050200089B24A0B41F27861C0F60101895CC8403F
:1050300080BD000080B586B00020059004900390EC
:10504000029043F60800C4F20200006800F00C0071
:105050000146019140B1FFE7019804280AD0FFE71B
:10506000019808280CD04FE042F20040C0F2F40052
:1050700002904FE047F64000C0F27D10029049E0F8
:1050800043F60400C4F20200016801F03F010591FB
:1050900000684002002813D5FFE743F60400C4F27D
:1050A00002000068C0F3881047F64001C0F27D118D
:1050B000A0FB0101059A0023FBF71AF9049012E006
:1050C00043F60400C4F202000068C0F3881042F204
:1050D0000041C0F2F401A0FB0101059A0023FBF797
:1050E00007F90490FFE743F60400C4F202000068E9
:1050F00000F44031022000EBD13003900498039972
:10510000B0FBF1F0029005E042F20040C0F2F40082
:105110000290FFE7029806B080BD000080B586B01F
:105120000490049820B9FFE701208DF8170050E3A0
:1051300004980078C007002800F0A580FFE743F638
:105140000800C4F20200006800F00C00042813D02C
:10515000FFE743F60800C4F20200006800F00C000C
:1051600008281ED1FFE743F60400C4F202000068DD
:105170004002002815D5FFE743F60000C4F2020004
:10518000006800F400310020B0EB514F08D0FFE779
:105190000498406820B9FFE701208DF8170018E354
:1051A00070E0FFE704984068B0F5803F09D1FFE761
:1051B00043F60001C4F20201086840F48030086040
:1051C00020E004984068B0F5A02F0DD1FFE743F62A
:1051D0000001C4F20201086840F4802008600868F9
:1051E00040F4803008600CE043F60001C4F2020194
:1051F000086820F480300860086820F48020086087
:10520000FFE7FFE7FFE704984068E8B1FFE7FFF733
:105210008DFC0390FFE743F60000C4F20200006833
:1052200000F400310020B0EB514F0CD1FFE7FFF745
:105230007DFC0399401A652804D3FFE703208DF80D
:105240001700C6E2E7E71CE0FFF770FC0390FFE7FA
:1052500043F60000C4F20200006800F400310020B0
:10526000B0EB514F0CD0FFE7FFF760FC0399401AF9
:10527000652804D3FFE703208DF81700A9E2E7E7CC
:10528000FFE7FFE7FFE7049800788007002840F178
:105290009680FFE743F60800C4F20200006810F0B1
:1052A0000C0F13D0FFE743F60800C4F202000068B9
:1052B00000F00C0008282CD1FFE743F60400C4F2EC
:1052C000020000684002002823D4FFE743F60000F4
:1052D000C4F20200006800F002010020B0EB510FA0
:1052E00009D0FFE70498C068012804D0FFE7012037
:1052F0008DF817006DE243F60001C4F20201086860
:1053000020F0F800049A126940EAC2000860FFE742
:1053100054E00498C06870B3FFE70021C4F247214D
:1053200001200860FFF702FC0390FFE743F600004E
:10533000C4F20200006800F002010020B0EB510F3F
:105340000CD1FFE7FFF7F2FB0399401A032804D3BF
:10535000FFE703208DF817003BE2E7E743F6000183
:10536000C4F20201086820F0F800049A126940EAC9
:10537000C200086021E00021C4F24721002008603B
:10538000FFF7D4FB0390FFE743F60000C4F20200EE
:10539000006800F002010020B0EB510F0CD0FFE7D5
:1053A000FFF7C4FB0399401A032804D3FFE7032047
:1053B0008DF817000DE2E7E7FFE7FFE7FFE7049846
:1053C0000078000700284BD5FFE70498406918B320
:1053D000FFE740F68061C4F2472101200860FFF733
:1053E000A5FB0390FFE743F67400C4F202000068D7
:1053F00000F002010020B0EB510F0CD1FFE7FFF7E6
:1054000095FB0399401A032804D3FFE703208DF886
:105410001700DEE1E7E722E040F68061C4F24721B1
:1054200000200860FFF782FB0390FFE743F674005B
:10543000C4F20200006800F002010020B0EB510F3E
:105440000CD0FFE7FFF772FB0399401A032804D33F
:10545000FFE703208DF81700BBE1E7E7FFE7FFE771
:10546000049800784007002840F1CE80FFE7002034
:105470008DF8070043F64000C4F202000068C00047
:10548000002815D4FFE7FFE70020009043F6400016
:10549000C4F20200016841F080510160006800F030
:1054A000805000900098FFE701208DF80700FFE78B
:1054B00047F20000C4F200000068C005002822D4B2
:1054C000FFE747F20001C4F20001086840F4807071
:1054D0000860FFF72BFB0390FFE747F20000C4F2E0
:1054E00000000068C00500280CD4FFE7FFF71EFB92
:1054F0000399401A032804D3FFE703208DF817000F
:1055000067E1EAE7FFE7FFE704988068012809D12F
:10551000FFE743F67001C4F20201086840F00100A1
:1055200008601FE00498806805280DD1FFE743F666
:105530007001C4F20201086840F0040008600868C5
:1055400040F0010008600CE043F67001C4F2020173
:10555000086820F001000860086820F00400086076
:10556000FFE7FFE7FFE704988068F8B1FFE7FFF780
:10557000DDFA0390FFE743F67000C4F20200006812
:1055800000F002010020B0EB510F0ED1FFE7FFF752
:10559000CDFA0399401A41F28931884204D3FFE7DA
:1055A00003208DF8170014E1E5E71EE0FFF7BEFACF
:1055B0000390FFE743F67000C4F20200006800F0B9
:1055C00002010020B0EB510F0ED0FFE7FFF7AEFA5B
:1055D0000399401A41F28931884204D3FFE703203E
:1055E0008DF81700F5E0E5E7FFE79DF807000128D3
:1055F00009D1FFE743F64001C4F20201086820F038
:1056000080500860FFE7FFE704988069002800F0F9
:10561000DC80FFE743F60800C4F20200006800F0F7
:105620000C00082800F08580FFE7049880690228B4
:105630005CD1FFE76021C4F2472100200860FFF73A
:1056400075FA0390FFE743F60000C4F20200006819
:1056500000F000710020B0EB516F0CD0FFE7FFF7B6
:1056600065FA0399401A032804D3FFE703208DF855
:105670001700AEE0E7E70499C869D1F820C04B6A8B
:105680008A6A40EA0C0040EA8310D2034FF6FF73A7
:105690009A43A2F580321043C96A40EA016043F69A
:1056A0000401C4F2020108606021C4F24721012014
:1056B0000860FFF73BFA0390FFE743F60000C4F2EF
:1056C0000200006800F000710020B0EB516F0CD1B7
:1056D000FFE7FFF72BFA0399401A032804D3FFE7EB
:1056E00003208DF8170074E0E7E721E06021C4F2A1
:1056F000472100200860FFF719FA0390FFE743F6FF
:105700000000C4F20200006800F000710020B0EB5D
:10571000516F0CD0FFE7FFF709FA0399401A0328ED
:1057200004D3FFE703208DF8170052E0E7E7FFE717
:105730004AE004988069012804D1FFE701208DF830
:10574000170046E043F60400C4F20200006802902D
:1057500004988069012831D0FFE7029800F48000A6
:105760000499C969884229D1FFE7029800F03F00F7
:105770000499096A884221D1FFE7029847F6C0716F
:1057800008400499496AB0EB811F17D1FFE70298DE
:1057900000F440300499896AC9034FF6FF729143BF
:1057A000A1F58031884209D1FFE7029800F07060CE
:1057B0000499C96AB0EB016F04D0FFE701208DF8AE
:1057C000170006E0FFE7FFE7FFE700208DF817006E
:1057D000FFE79DF8170006B080BD000081B0009083
:1057E00001B0704781B0009001B0704784B0029062
:1057F000019100200090FFE7029890F83C000128FA
:1058000004D1FFE702208DF80F0044E00299012047
:1058100081F83C00FFE7FFE7009820F0FF000199C6
:10582000C96808430090009820F440700199896885
:1058300008430090009820F480600199496808436B
:105840000090009820F400600199096808430090D6
:10585000009820F48050019909690843009000984D
:1058600020F400500199496908430090009820F401
:1058700080400199C969084300900098029909681D
:105880004864FFE70299002081F83C00FFE7002010
:105890008DF80F00FFE79DF80F0004B0704700007F
:1058A00085B003900291FFE7039890F83C0001282F
:1058B00004D1FFE702208DF813007EE00399012058
:1058C00081F83C00FFE7FFE70399022081F83D00E3
:1058D0000398006840680190039800688068009011
:1058E000019820F070000190029801680198084327
:1058F00001900198039909684860039800680021A5
:10590000C4F2010188423CD0FFE703980068B0F17F
:10591000804F36D0FFE70398006840F20041C4F2A0
:10592000000188422DD0FFE70398006840F600018F
:10593000C4F20001884224D0FFE70398006840F6D3
:105940000041C4F2000188421BD0FFE703980068C1
:1059500040F20041C4F20101884212D0FFE70398EF
:10596000006844F20001C4F20101884209D0FFE757
:105970000398006841F60001C4F2000188420ED18C
:10598000FFE7009820F0800000900298416800989E
:10599000084300900098039909688860FFE703991D
:1059A000012081F83D00FFE70399002081F83C00C9
:1059B000FFE700208DF81300FFE79DF8130005B006
:1059C0007047000080B582B00090009820B9FFE7D2
:1059D00001208DF807003FE0009890F83D0040B9A5
:1059E000FFE70099002081F83C00009800F038F8AB
:1059F000FFE70099022081F83D00009951F8040B5F
:105A000005F068FC0099012081F84600FFE7009945
:105A1000012081F83E00009981F83F00009981F84B
:105A20004000009981F84100FFE7FFE7009901205D
:105A300081F84200009981F84300009981F8440000
:105A4000009981F84500FFE70099012081F83D00A9
:105A500000208DF80700FFE79DF8070002B080BD29
:105A600082B001900198006842F20001C4F2000186
:105A7000884212D1FFE7FFE70020009043F6400084
:105A8000C4F20200016841F480710160006800F412
:105A9000807000900098FFE7FFE702B070470000B9
:105AA00083B00190019890F83D00012804D0FFE7F1
:105AB00001208DF80B006AE00199022081F83D0079
:105AC00001980168C86840F00100C860019800684A
:105AD0000021C4F2010188423CD0FFE70198006830
